:1000000033C000004CC00000A8C0000048C0000081
:1000100046C0000044C0000042C0000040C00000D4
:100020003EC000003CC000003AC0000038C00000E4
:1000300036C000006DC0000032C0000030C00000BB
:100040002EC000002CC000002AC0000028C0000004
:1000500026C0000024C0000022C0000020C0000014
:100060001EC000001CC0000011241FBECFEFD8E04E
:10007000DEBFCDBF11E0A0E0B1E0E6E9F5E002C0EF
:1000800005900D92A230B107D9F721E0A2E0B1E0CE
:1000900001C01D92AE33B207E1F737D17AC2B0CFBB
:1000A00095B184B180628F7784B9892F806A85B9D0
:1000B00008951092C50083E38093C4001092C0009D
:1000C00088E18093C10086E08093C2002FE38DE039
:1000D00093E0215080409040E1F700C00000089577
:1000E000E0ECF0E080818823ECF78091C60090E09E
:1000F0000895E0ECF0E0908195FFFDCF8093C6007D
:10010000089580E480937C0087E880937A000895C6
:100110001F920F920FB60F9211248F939F9380918D
:100120002401813099F48091060190910701019694
:1001300090930701809306018C35910538F0109259
:100140000D011092240181E0809339019F918F91DC
:100150000F900FBE0F901F9018951F920F920FB621
:100160000F9211242F933F934F935F936F937F933D
:100170008F939F93AF93BF93EF93FF9380910D0164
:100180008130C1F58091240181110CC081E0809300
:1001900024011092850010928400109207011092A1
:1001A000060128C01092240120918400309185001E
:1001B0006091060170910701CB01A0E0B0E0DC0185
:1001C00099278827BC01CD01620F731F811D911DE6
:1001D000F1D020E030E040E05FE378D129E93BEB6B
:1001E00046E15BE373D1B8D070933B0160933A0171
:1001F00010920D0181E080938100FF91EF91BF91FA
:10020000AF919F918F917F916F915F914F913F91AE
:100210002F910F900FBE0F901F90189580910D0198
:10022000811113C083ED90E30197F1F700C0000046
:1002300058980000589A93E09A95F1F70000589862
:1002400081E080930D0110923901089587EF8AB9FA
:100250008FEF84B90895109280001092810010925F
:1002600085001092840081E080936F000895E9E694
:10027000F0E0808184608083E99A0895E7DFF7DF0A
:10028000EADF80E090E00895299A2FE78AE196E07E
:10029000215080409040E1F700C0000085B185B951
:1002A0002FE78AE196E0215080409040E1F700C0BE
:1002B000000008959C012053310922303105F8F4E3
:1002C000209100013091010182179307C1F0209124
:1002D0000201309103012A30310539F421E030E088
:1002E000309303012093020106C02F5F3F4F3093EC
:1002F00003012093020190930101809300018091FA
:10030000020190910301F5CE08951AB88FEF84B9D8
:10031000C7DECFDEF6DEB2DF789480DF2FE38DE03C
:1003200093E0215080409040E1F700C00000D8DE0B
:10033000C1DFC0913A01D0913B01809104019091BD
:1003400005018C179D0711F09FDF01C015B8D093F0
:100350000501C0930401E1CF98D088F09F5790F039
:10036000B92F9927B751A0F0D1F0660F771F881FDA
:10037000991F1AF0BA95C9F712C0B13081F09FD019
:10038000B1E008959CC0672F782F8827B85F39F0B7
:10039000B93FCCF3869577956795B395D9F73EF439
:1003A00090958095709561957F4F8F4F9F4F0895E1
:1003B000E89409C097FB3EF49095809570956195FF
:1003C0007F4F8F4F9F4F9923A9F0F92F96E9BB27B5
:1003D0009395F695879577956795B795F111F8CF31
:1003E000FAF4BB0F11F460FF1BC06F5F7F4F8F4F9C
:1003F0009F4F16C0882311F096E911C0772321F092
:100400009EE8872F762F05C0662371F096E8862F29
:1004100070E060E02AF09A95660F771F881FDAF780
:10042000880F9695879597F9089597F99F6780E8C3
:1004300070E060E008959FEF80EC089500240A9436
:100440001616170618060906089500240A941216AF
:100450001306140605060895092E0394000C11F4E2
:10046000882352F0BB0F40F4BF2B11F460FF04C08F
:100470006F5F7F4F8F4F9F4F089557FD9058440FE8
:10048000551F59F05F3F71F04795880F97FB991FF3
:1004900061F09F3F79F087950895121613061406B0
:1004A000551FF2CF4695F1DF08C01616170618063D
:1004B000991FF1CF86957105610508940895E89418
:1004C000BB2766277727CB0197F908950BD0C4CFB8
:1004D000B5DF28F0BADF18F0952309F0A6CFABCF2F
:1004E0001124EECFCADFA0F3959FD1F3950F50E012
:1004F000551F629FF001729FBB27F00DB11D639FD6
:10050000AA27F00DB11DAA1F649F6627B00DA11D7B
:10051000661F829F2227B00DA11D621F739FB00D21
:10052000A11D621F839FA00D611D221F749F332791
:10053000A00D611D231F849F600D211D822F762F2A
:100540006A2F11249F5750408AF0E1F088234AF027
:10055000EE0FFF1FBB1F661F771F881F9150504073
:10056000A9F79E3F510570F060CFAACF5F3FECF333
:10057000983EDCF3869577956795B795F795E7955F
:100580009F5FC1F7FE2B880F911D9695879597F970
:060590000895F894FFCF6E
:02059600310032
:00000001FF
