:100000003CC0000055C00000C5C0000051C0000049
:100010004FC000004DC000004BC0000049C00000B0
:1000200047C0000045C0000043C0000041C00000C0
:100030003FC000008AC000003BC0000039C0000083
:1000400037C0000035C0000033C0000031C00000E0
:100050002FC000002DC000002BC0000029C00000F0
:1000600027C0000025C000000003030306030903A6
:1000700018030C030F031203150311241FBECFEF47
:10008000D8E0DEBFCDBF11E0A0E0B1E0ECE6FDE0DE
:1000900002C005900D92AE30B107D9F721E0AEE075
:1000A000B1E001C01D92A838B207E1F71DD45CC6CB
:1000B000A7CF95B184B180628F7784B9892F806A88
:1000C00085B908951092C50083E38093C40010920F
:1000D000C00088E18093C10086E08093C2002FE3D6
:1000E0008DE093E0215080409040E1F700C0000097
:1000F0000895E0ECF0E080818823ECF78091C60061
:1001000090E00895E0ECF0E0908195FFFDCF8093C2
:10011000C600089580E480937C0087E880937A008D
:100120000895ECE7F0E09081987F8770892B8083B9
:10013000EAE7F0E0808180648083808186FDFDCFE6
:10014000809178009091790008951F920F920FB6D8
:100150000F9211248F939F9380915A01813099F4CB
:1001600080912E0190912F01019690932F01809301
:100170002E018C35910538F01092310110925A0100
:1001800081E0809383019F918F910F900FBE0F901C
:100190001F9018951F920F920FB60F9211242F9354
:1001A0003F934F935F936F937F938F939F93AF93FF
:1001B000BF93EF93FF93809131018130C1F580911E
:1001C0005A0181110CC081E080935A011092850080
:1001D0001092840010922F0110922E0128C01092CC
:1001E0005A01209184003091850060912E01709118
:1001F0002F01CB01A0E0B0E0DC0199278827BC01EA
:10020000CD01620F731F811D911DB9D420E030E034
:1002100040E05FE340D529E93BEB46E15BE33BD5BA
:1002200080D470938501609384011092310181E044
:1002300080938100FF91EF91BF91AF919F918F913A
:100240007F916F915F914F913F912F910F900FBED2
:100250000F901F90189580913101811113C083ED8B
:1002600090E30197F1F700C0000058980000589AF9
:1002700093E09A95F1F70000589881E0809331015E
:1002800010928301089587EF8AB98FEF84B908959A
:1002900010928000109281001092850010928400CC
:1002A00081E080936F000895E9E6F0E0808184604A
:1002B0008083E99A0895E7DFF7DFEADF80E090E0E6
:1002C000089585E02EDFBC0180E090E056C40895DB
:1002D000AF92BF92CF92DF92EF92FF920F931F9354
:1002E000CF93DF93A0902801B090290185010F5F83
:1002F0001F4FC1F0CBE5D1E0000F111F000F111F00
:10030000055A1E4F2991399149915991C701B6015A
:1003100037D36B017C01C017D107A1F7B5016F5F1F
:100320007F4F02C060E070E0072E000C880B990B35
:1003300026D49B01AC01C701B60186D360932A0184
:1003400070932B0180932C0190932D01DF91CF911D
:100350001F910F91FF90EF90DF90CF90BF90AF90E3
:10036000089580912801909129010C9720F0109216
:10037000290110922801A5DF20912801309129013F
:10038000F901EE0FFF1FEE0FFF1FE55AFE4F6083CE
:10039000718382839383C90101969093290180938D
:1003A000280108958F929F92AF92BF92CF92DF92D1
:1003B000EF92FF9220912401309125014091260176
:1003C0005091270160910A0170910B0180910C01FD
:1003D00090910D01D4D24B015C017ADF2091240170
:1003E00030912501409126015091270160912A0109
:1003F00070912B0180912C0190912D01C0D26B0145
:100400007C01A501940160E070E088EC92E41CD3CB
:100410009B01AC01C701B6013ED4FF90EF90DF9085
:10042000CF90BF90AF909F908F90089580E079DE3D
:10043000BC0180E090E0A1D32FE832EC45E950E424
:100440002AD420E030E040E85AE325D420E030E030
:1004500040E05FE394D220E030E048EC52E41BC47B
:10046000AF92BF92CF92DF92EF92FF920F931F93C2
:10047000CF93DF93A0901E01B0901F0185010F5F05
:100480001F4FC1F0C2E3D1E0000F111F000F111F79
:100490000E5C1E4F2991399149915991C701B601BE
:1004A0006FD26B017C01C017D107A1F7B5016F5F57
:1004B0007F4F02C060E070E0072E000C880B990BA4
:1004C0005ED39B01AC01C701B601BED2609320018F
:1004D000709321018093220190932301DF91CF91AA
:1004E0001F910F91FF90EF90DF90CF90BF90AF9052
:1004F000089580911E0190911F010C9720F0109299
:100500001F0110921E0192DF20911E0130911F01E8
:10051000F901EE0FFF1FEE0FFF1FEE5CFE4F608331
:10052000718382839383C901019690931F01809305
:100530001E0108958F929F92AF92BF92CF92DF9249
:10054000EF92FF922091060130910701409108013E
:1005500050910901609102017091030180910401A1
:10056000909105010CD24B015C017ADF20910601CC
:1005700030910701409108015091090160912001DB
:10058000709121018091220190912301F8D16B019A
:100590007C01A501940160E070E088EC92E454D203
:1005A0009B01AC01C701B60176D3FF90EF90DF90BD
:1005B000CF90BF90AF909F908F900895289A089504
:1005C0002A9A0895299A2FE78AE196E021508040DF
:1005D0009040E1F700C0000085B185B92FE78AE1BE
:1005E00096E0215080409040E1F700C0000008955F
:1005F000C19789309105E0F48C5C9F4FFC01AEC33C
:1006000081E090E0089582E090E0089583E090E03A
:10061000089584E090E0089586E090E0089587E0F2
:1006200090E0089588E090E0089589E090E00895D2
:1006300080E090E00895CF92DF92EF92FF92809158
:10064000180190911901089709F453DF809118015E
:1006500090911901039709F484DE8091180190911B
:1006600019010A9709F04FC0809116019091170166
:10067000892B09F052C081E090E044DD82E090E0F7
:1006800041DDEEDE60912001709121018091220117
:100690009091230141D2CB0135DD81E090E032DD44
:1006A00083E090E02FDD14DE60912A0170912B0130
:1006B00080912C0190912D012FD2CB0123DD81E07F
:1006C00090E0909317018093160134DF6B017C0159
:1006D00069DE9B01AC01C701B60152D120E030E0D8
:1006E00040E05FE3D8D218D27093150160931401F3
:1006F00081E090E007DD89E090E004DD8091140165
:1007000090911501FFDC80911801909119010197DA
:1007100021F4109217011092160180E090E0F2DCB3
:10072000FF90EF90DF90CF900895CF93DF93E1DCBF
:10073000EC01839709F061C0809110019091110143
:1007400086339105E1F01CF4C59739F04DC087332D
:10075000910539F1C897B9F147C060910E017091C8
:100760000F01072E000C880B990B09D2609306012C
:1007700070930701809308019093090135C060913F
:100780000E0170910F01072E000C880B990BF7D109
:10079000609302017093030180930401909305011B
:1007A00023C060910E0170910F01072E000C880B81
:1007B000990BE5D160932401709325018093260164
:1007C0009093270111C060910E0170910F01072EC7
:1007D000000C880B990BD3D160930A0170930B0125
:1007E00080930C0190930D0110921301109212014D
:1007F00010920F0110920E0168C08091100190912B
:100800001101892B09F042C0CE01C0970297F0F484
:100810008091000190910101C817D907B9F080912A
:100820001801909119018A30910539F481E090E026
:10083000909319018093180105C0019690931901B6
:1008400080931801D0930101C0930001C233D105F8
:1008500029F410921D0110921C0109C0C333D10567
:1008600031F481E090E090931D0180931C01CE0152
:10087000C497059750F5D0931101C093100181E002
:1008800090E090931301809312011FC08091120198
:1008900090911301892BC9F084E085B9CE01A8DEBF
:1008A00020910E0130910F01A901440F551F220F15
:1008B000331F220F331F220F331F240F351F820FC8
:1008C000931F90930F0180930E01CE01DF91CF9182
:1008D0000895009719F0019721F0089573DE70CE06
:1008E000089570DE6BCE08951AB88FEF84B9E1DBFE
:1008F000E9DB10DCE0DC789401E010E0E12CF12C85
:1009000080911C0190911D01892B51F4A4DC2FE3EF
:100910008DE093E0215080409040E1F700C000005E
:1009200004DF89DE80911C0190911D01892B29F43F
:10093000C0918401D091850104C0C0911401D0916F
:10094000150120911A0130911B01C217D30789F0BC
:10095000802F912FC217D30714F08E2D9F2DB9DF52
:10096000802F912FCFDB84E090E0CCDBCE01CADB7F
:1009700001C015B8D0931B01C0931A01C1CF5058C4
:10098000BB27AA270ED04DC13ED130F043D120F075
:1009900031F49F3F11F41EF433C10EF4E095E7FBF0
:1009A00029C1E92F4FD180F3BA1762077307840773
:1009B000950718F071F49EF567C10EF4E0950B2EC3
:1009C000BA2FA02D0B01B90190010C01CA01A001A1
:1009D0001124FF27591B99F0593F50F4503E68F1FC
:1009E0001A16F040A22F232F342F4427585FF3CF3D
:1009F000469537952795A795F0405395C9F77EF40E
:100A00001F16BA0B620B730B840BBAF09150A1F056
:100A1000FF0FBB1F661F771F881FC2F70EC0BA0FDC
:100A2000621F731F841F48F4879577956795B79564
:100A3000F7959E3F08F0B3CF9395880F08F099275C
:100A4000EE0F9795879508950CD0EBC0E3D040F05A
:100A5000DAD030F021F45F3F19F0CCC0511115C14C
:100A6000CFC0F0D098F39923C9F35523B1F3951B68
:100A7000550BBB27AA2762177307840738F09F5FBF
:100A80005F4F220F331F441FAA1FA9F333D00E2E2E
:100A90003AF0E0E830D091505040E695001CCAF79B
:100AA00029D0FE2F27D0660F771F881FBB1F261760
:100AB00037074807AB07B0E809F0BB0B802DBF0133
:100AC000FF2793585F4F2AF09E3F510568F092C070
:100AD000DCC05F3FECF3983EDCF386957795679535
:100AE000B795F7959F5FC9F7880F911D96958795E4
:100AF00097F90895E1E0660F771F881FBB1F621703
:100B000073078407BA0720F0621B730B840BBA0BC0
:100B1000EE1F88F7E095089504D06894B111B5C030
:100B2000089598D088F09F5790F0B92F9927B75122
:100B3000A0F0D1F0660F771F881F991F1AF0BA95A1
:100B4000C9F712C0B13081F09FD0B1E008959CC0C8
:100B5000672F782F8827B85F39F0B93FCCF3869597
:100B600077956795B395D9F73EF4909580957095F4
:100B700061957F4F8F4F9F4F0895E89409C097FB71
:100B80003EF490958095709561957F4F8F4F9F4F64
:100B90009923A9F0F92F96E9BB279395F6958795A8
:100BA00077956795B795F111F8CFFAF4BB0F11F46B
:100BB00060FF1BC06F5F7F4F8F4F9F4F16C0882312
:100BC00011F096E911C0772321F09EE8872F762F48
:100BD00005C0662371F096E8862F70E060E02AF089
:100BE0009A95660F771F881FDAF7880F9695879575
:100BF00097F9089597F99F6780E870E060E008959D
:100C00009FEF80EC089500240A9416161706180624
:100C10000906089500240A94121613061406050600
:100C20000895092E0394000C11F4882352F0BB0F91
:100C300040F4BF2B11F460FF04C06F5F7F4F8F4FF4
:100C40009F4F089557FD9058440F551F59F05F3F2F
:100C500071F04795880F97FB991F61F09F3F79F0DE
:100C600087950895121613061406551FF2CF469560
:100C7000F1DF08C0161617061806991FF1CF8695E2
:100C80007105610508940895E894BB2766277727C6
:100C9000CB0197F908950BD0C4CFB5DF28F0BADFA8
:100CA00018F0952309F0A6CFABCF1124EECFCADF01
:100CB000A0F3959FD1F3950F50E0551F629FF0016F
:100CC000729FBB27F00DB11D639FAA27F00DB11DC8
:100CD000AA1F649F6627B00DA11D661F829F222751
:100CE000B00DA11D621F739FB00DA11D621F839FD8
:100CF000A00D611D221F749F3327A00D611D231FAE
:100D0000849F600D211D822F762F6A2F11249F57FB
:100D100050408AF0E1F088234AF0EE0FFF1FBB1F1E
:100D2000661F771F881F91505040A9F79E3F5105BD
:100D300070F060CFAACF5F3FECF3983EDCF386956E
:100D400077956795B795F795E7959F5FC1F7FE2B68
:100D5000880F911D9695879597F90895EE0FFF1FBF
:0C0D60000590F491E02D0994F894FFCF69
:0E0D6C0031000000A041000020410000C842FC
:00000001FF
