S020000050726F6A6563742D656D6265646465642D73797374656D732E7372656391
S113000033C000004CC0000024C1000048C0000000
S113001046C0000044C0000042C0000040C00000D0
S11300203EC000003CC000003AC0000038C00000E0
S113003036C00000E9C0000032C0000030C000003B
S11300402EC000002CC000002AC0000028C0000000
S113005026C0000024C0000022C0000020C0000010
S11300601EC000001CC0000011241FBECFEFD8E04A
S1130070DEBFCDBF11E0A0E0B1E0EAEEF7E002C0E0
S113008005900D92A230B107D9F721E0A2E0B1E0CA
S113009001C01D92A636B207E1F7EFD1A4C3B0CFD9
S11300A095B184B180628F7784B9892F806A85B9CC
S11300B008951092C50083E38093C4001092C00099
S11300C088E18093C10086E08093C2002FE38DE035
S11300D093E0215080409040E1F700C00000089573
S11300E0E0ECF0E080818823ECF78091C60090E09A
S11300F00895E0ECF0E0908195FFFDCF8093C60079
S1130100089580E480937C0087E880937A000895C2
S1130110ECE7F0E09081987F8770892B8083EAE791
S1130120F0E0808180648083808186FDFDCF8091B2
S1130130780090917900089585E0EADFBC0180E0C1
S113014090E060C2089580910C0190910D010C978C
S113015020F010920D0110920C01EEDF20910C01A1
S113016030910D01F901EE0FFF1FEE0FFF1FE75C49
S1130170FE4F6083718382839383C90101969093B8
S11301800D0180930C01089580E0C2DFBC0180E082
S113019090E038D22FE832EC45E950E4C1D220E0B7
S11301A030E040E85AE3BCD220E030E040E05FE3D6
S11301B093D120E030E048EC52E4B2D220E030E0C9
S11301C040E05FE3ADC280910A0190910B010C976E
S11301D020F010920B0110920A01D6DF20910A013F
S11301E030910B01F901EE0FFF1FEE0FFF1FE05FCF
S11301F0FE4F6083718382839383C9010196909338
S11302000B0180930A0108951F920F920FB60F926B
S113021011248F939F9380913801813099F48091B8
S113022008019091090101969093090180930801B6
S11302308C35910538F010920F011092380181E04D
S1130240809361019F918F910F900FBE0F901F902B
S113025018951F920F920FB60F9211242F933F936C
S11302604F935F936F937F938F939F93AF93BF93BA
S1130270EF93FF9380910F018130C1F58091380194
S113028081110CC081E08093380110928500109296
S11302908400109209011092080128C010923801BC
S11302A020918400309185006091080170910901CA
S11302B0CB01A0E0B0E0DC0199278827BC01CD0187
S11302C0620F731F811D911D9FD120E030E040E03B
S11302D05FE326D229E93BEB46E15BE321D266D119
S11302E0709363016093620110920F0181E0809327
S11302F08100FF91EF91BF91AF919F918F917F9179
S11303006F915F914F913F912F910F900FBE0F907E
S11303101F90189580910F01811113C083ED90E314
S11303200197F1F700C0000058980000589A93E034
S11303309A95F1F70000589881E080930F0110928C
S11303406101089587EF8AB98FEF84B908951092F7
S1130350800010928100109285001092840081E048
S113036080936F000895E9E6F0E0808184608083E3
S1130370E99A0895E7DFF7DFEADF80E090E0089587
S1130380299A2FE78AE196E0215080409040E1F7D6
S113039000C0000085B185B92FE78AE196E02150BD
S11303A080409040E1F700C0000008959C01205374
S11303B0310922303105F8F4209100013091010116
S11303C082179307C1F020910401309105012A306E
S11303D0310539F421E030E0309305012093040124
S11303E006C02F5F3F4F3093050120930401909383
S11303F00101809300018091040190910501089707
S113040009F4E1DE8091040190910501039709F458
S11304109ADE80910401909105010A9701F580917B
S1130420020190910301892B21F581E090E061DEC6
S113043082E090E05EDEA8DEB4D0CB015ADE81E03B
S113044090E057DE83E090E054DE76DEAAD0CB0164
S113045050DE81E090E0909303018093020180914B
S1130460040190910501019721F410920301109267
S1130470020180E090E03DCE08951AB88FEF84B970
S11304800FDE17DE3EDE76DF789444DF2FE38DE067
S113049093E0215080409040E1F700C0000020DE4E
S11304A085DFC0916201D091630180910601909132
S11304B007018C179D0751F063DF81E090E019DE9E
S11304C084E090E016DECE0114DE01C015B8D093AE
S11304D00701C0930601D9CF5058BB27AA270ED0D5
S11304E0E5C0D6D030F0DBD020F031F49F3F11F4DA
S11304F01EF4CBC00EF4E095E7FBC1C0E92FE7D0B2
S113050080F3BA17620773078407950718F071F42C
S11305109EF5FFC00EF4E0950B2EBA2FA02D0B0113
S1130520B90190010C01CA01A0011124FF27591B34
S113053099F0593F50F4503E68F11A16F040A22F3A
S1130540232F342F4427585FF3CF469537952795AB
S1130550A795F0405395C9F77EF41F16BA0B620BAA
S1130560730B840BBAF09150A1F0FF0FBB1F661FF1
S1130570771F881FC2F70EC0BA0F621F731F841F34
S113058048F4879577956795B795F7959E3F08F05A
S1130590B3CF9395880F08F09927EE0F9795879519
S11305A0089504D06894B111B5C0089598D088F026
S11305B09F5790F0B92F9927B751A0F0D1F0660F4B
S11305C0771F881F991F1AF0BA95C9F712C0B13066
S11305D081F09FD0B1E008959CC0672F782F8827C1
S11305E0B85F39F0B93FCCF3869577956795B395A5
S11305F0D9F73EF490958095709561957F4F8F4F14
S11306009F4F0895E89409C097FB3EF49095809518
S1130610709561957F4F8F4F9F4F9923A9F0F92FC4
S113062096E9BB279395F695879577956795B79542
S1130630F111F8CFFAF4BB0F11F460FF1BC06F5F28
S11306407F4F8F4F9F4F16C0882311F096E911C03A
S1130650772321F09EE8872F762F05C0662371F05B
S113066096E8862F70E060E02AF09A95660F771F6F
S1130670881FDAF7880F9695879597F9089597F963
S11306809F6780E870E060E008959FEF80EC089534
S113069000240A941616170618060906089500245D
S11306A00A9412161306140605060895092E0394D7
S11306B0000C11F4882352F0BB0F40F4BF2B11F44B
S11306C060FF04C06F5F7F4F8F4F9F4F089557FDAA
S11306D09058440F551F59F05F3F71F04795880FAC
S11306E097FB991F61F09F3F79F087950895121643
S11306F013061406551FF2CF4695F1DF08C01616EF
S113070017061806991FF1CF86957105610508949F
S11307100895E894BB2766277727CB0197F90895B6
S11307200BD0C4CFB5DF28F0BADF18F0952309F059
S1130730A6CFABCF1124EECFCADFA0F3959FD1F3A0
S1130740950F50E0551F629FF001729FBB27F00D7B
S1130750B11D639FAA27F00DB11DAA1F649F6627D0
S1130760B00DA11D661F829F2227B00DA11D621F1F
S1130770739FB00DA11D621F839FA00D611D221FD9
S1130780749F3327A00D611D231F849F600D211DBD
S1130790822F762F6A2F11249F5750408AF0E1F060
S11307A088234AF0EE0FFF1FBB1F661F771F881FA9
S11307B091505040A9F79E3F510570F060CFAACFE9
S11307C05F3FECF3983EDCF3869577956795B79594
S11307D0F795E7959F5FC1F7FE2B880F911D9695BE
S10D07E0879597F90895F894FFCF68
S10507EA3100D8
S9030000FC
