S020000050726F6A6563742D656D6265646465642D73797374656D732E7372656391
S113000033C000004CC000004AC0000048C00000DB
S113001046C0000044C0000042C0000040C00000D0
S11300203EC000003CC000003AC0000038C00000E0
S113003036C0000034C0000032C0000030C00000F0
S11300402EC000002CC000002AC0000028C0000000
S113005026C0000024C0000022C0000020C0000010
S11300601EC000001CC0000011241FBECFEFD8E04A
S1130070DEBFCDBF11E0A0E0B1E0ECE7F4E002C0E8
S113008005900D92A030B107D9F721E0A0E0B1E0CE
S113009001C01D92A030B207E1F755D0EDC1B0CF39
S11300A095B184B180628F7784B9892F806A85B9CC
S11300B0089580E480937C0087E880937A00089513
S11300C01092C50083E38093C4001092C00088E1BD
S11300D08093C10086E08093C2000895ECE7F0E0CD
S11300E09081987F8770892B8083EAE7F0E0808194
S11300F080648083808186FDFDCF8091780090911B
S11301007900089585E0EADFBC0180E090E09BC0BF
S1130110089580E0E3DFBC0180E090E094D02FE814
S113012032EC45E950E421D120E030E040E85AE3E4
S11301301CD120E030E040E05FE320D020E030E05C
S113014048EC52E412C1ACDFBBDFB3DF8FEF8AB9F6
S1130150C0E2D0EED7DF20E030E048EC52E401D139
S1130160181654F4D6DF20E030E040E252E4F9D02F
S1130170181614F4DBB9EECFCBB9ECCF5058BB272B
S1130180AA270ED0B4C0A5D030F0AAD020F031F404
S11301909F3F11F41EF49AC00EF4E095E7FB90C063
S11301A0E92FB6D080F3BA1762077307840795075F
S11301B018F071F49EF5CEC00EF4E0950B2EBA2F14
S11301C0A02D0B01B90190010C01CA01A001112459
S11301D0FF27591B99F0593F50F4503E68F11A1605
S11301E0F040A22F232F342F4427585FF3CF469596
S11301F037952795A795F0405395C9F77EF41F16B8
S1130200BA0B620B730B840BBAF09150A1F0FF0F81
S1130210BB1F661F771F881FC2F70EC0BA0F621F6D
S1130220731F841F48F4879577956795B795F7955D
S11302309E3F08F0B3CF9395880F08F09927EE0FEF
S1130240979587950895E89409C097FB3EF4909597
S11302508095709561957F4F8F4F9F4F9923A9F09B
S1130260F92F96E9BB279395F6958795779567952A
S1130270B795F111F8CFFAF4BB0F11F460FF1BC06E
S11302806F5F7F4F8F4F9F4F16C0882311F096E901
S113029011C0772321F09EE8872F762F05C06623AF
S11302A071F096E8862F70E060E02AF09A95660F68
S11302B0771F881FDAF7880F9695879597F9089521
S11302C097F99F6780E870E060E008959FEF80EC05
S11302D0089500240A9416161706180609060895A8
S11302E000240A9412161306140605060895092E0E
S11302F00394000C11F4882352F0BB0F40F4BF2B7D
S113030011F460FF04C06F5F7F4F8F4F9F4F0895BC
S113031057FD9058440F551F59F05F3F71F04795B2
S1130320880F97FB991F61F09F3F79F08795089597
S1130330121613061406551FF2CF4695F1DF08C0B6
S1130340161617061806991FF1CF869571056105D3
S113035008940895E894BB2766277727CB0197F97B
S1130360089566D008F48FEF08950BD0C0CFB1DFA5
S113037028F0B6DF18F0952309F0A2CFA7CF1124F7
S1130380EACFC6DFA0F3959FD1F3950F50E0551F38
S1130390629FF001729FBB27F00DB11D639FAA27D6
S11303A0F00DB11DAA1F649F6627B00DA11D661F25
S11303B0829F2227B00DA11D621F739FB00DA11D46
S11303C0621F839FA00D611D221F749F3327A00D00
S11303D0611D231F849F600D211D822F762F6A2F9C
S11303E011249F5750408AF0E1F088234AF0EE0F21
S11303F0FF1FBB1F661F771F881F91505040A9F72E
S11304009E3F510570F05CCFA6CF5F3FECF3983E62
S1130410DCF3869577956795B795F795E7959F5F94
S1130420C1F7FE2B880F911D9695879597F908952E
S1130430990F0008550FAA0BE0E8FEEF16161706F1
S1130440E807F907C0F012161306E407F50798F059
S1130450621B730B840B950B39F40A2661F0232B72
S1130460242B252B21F408950A2609F4A140A695EE
S10F04708FEF811D811D0895F894FFCFCB
S9030000FC
