S020000050726F6A6563742D656D6265646465642D73797374656D732E7372656391
S113000033C000004CC000004AC0000048C00000DB
S113001046C0000044C0000042C0000040C00000D0
S11300203EC000003CC000003AC0000038C00000E0
S113003036C0000034C0000032C0000030C00000F0
S11300402EC000002CC000002AC0000028C0000000
S113005026C0000024C0000022C0000020C0000010
S11300601EC000001CC0000011241FBECFEFD8E04A
S1130070DEBFCDBF11E0A0E0B1E0E6EFF2E002C0E8
S113008005900D92A030B107D9F721E0A0E0B1E0CE
S113009001C01D92A030B207E1F77DD02AC1B0CFD4
S11300A095B184B180628F7784B9892F806A85B9CC
S11300B008951092C50083E38093C4001092C00099
S11300C088E18093C10086E08093C2000895E0EC4B
S11300D0F0E080818823ECF78091C6000895E0EC7D
S11300E0F0E0908195FFFDCF8093C6000895CF93F3
S11300F0DF93C82F843688F08CE98C0F843638F06F
S113010088E38C0F843630F0CC5283E307C0C82FC9
S113011081E304C0C82F82E301C080E3CA3098F0B1
S1130120D0E3CA50DF5FCA30E0F7803311F408C06F
S1130130D0E3D5DF8D2FD3DF80E38C0FD0DF06C073
S1130140D033C1F7F9CF803399F7F6CFDF91CF9150
S1130150089580E480937C0087E880937A00089572
S1130160ECE7F0E09081987F8770892B8083EAE741
S1130170F0E0808180648083808186FDFDCF809162
S1130180780090917900089585E0EADFBC0180E071
S113019090E049C008958FEF8AB982DF8ADF2FE3A8
S11301A08DE093E0215080409040E1F700C00000D2
S11301B0D0DFD0E210EE8BDFC82FE6DF08D0862F29
S11301C096DFC13311F41BB9F6CFDBB9F4CF70D08D
S11301D088F09F5790F0B92F9927B751A0F0D1F02C
S11301E0660F771F881F991F1AF0BA95C9F712C0B6
S11301F0B13081F077D0B1E0089574C0672F782FC3
S11302008827B85F39F0B93FCCF386957795679521
S1130210B395D9F73EF490958095709561957F4F8D
S11302208F4F9F4F0895E89409C097FB3EF4909533
S11302308095709561957F4F8F4F9F4F9923A9F0BB
S1130240F92F96E9BB279395F6958795779567954A
S1130250B795F111F8CFFAF4BB0F11F460FF1BC08E
S11302606F5F7F4F8F4F9F4F16C0882311F096E921
S113027011C0772321F09EE8872F762F05C06623CF
S113028071F096E8862F70E060E02AF09A95660F88
S1130290771F881FDAF7880F9695879597F9089541
S11302A057FD9058440F551F59F05F3F71F0479523
S11302B0880F97FB991F61F09F3F79F08795089508
S11302C0121613061406551FF2CF4695F1DF08C027
S11302D0161617061806991FF1CF86957105610544
S11302E008940895E894BB2766277727CB0197F9EC
S10902F00895F894FFCF0D
S9030000FC
