S020000050726F6A6563742D656D6265646465642D73797374656D732E7372656391
S113000033C000004CC000000EC1000048C0000016
S113001046C0000044C0000042C0000040C00000D0
S11300203EC000003CC000003AC0000038C00000E0
S113003036C00000D3C0000032C0000030C0000051
S11300402EC000002CC000002AC0000028C0000000
S113005026C0000024C0000022C0000020C0000010
S11300601EC000001CC0000011241FBECFEFD8E04A
S1130070DEBFCDBF11E0A0E0B1E0E2EBF6E002C0EC
S113008005900D92A030B107D9F721E0A0E0B1E0CE
S113009001C01D92A533B207E1F77DD108C3B0CFEB
S11300A095B184B180628F7784B9892F806A85B9CC
S11300B008951092C50083E38093C4001092C00099
S11300C088E18093C10086E08093C2002FE38DE035
S11300D093E0215080409040E1F700C00000089573
S11300E0E0ECF0E080818823ECF78091C60008956D
S11300F0E0ECF0E0908195FFFDCF8093C600089579
S1130100CF93DF93C82F843688F08CE98C0F843624
S113011038F088E38C0F843630F0CC5283E307C088
S1130120C82F81E304C0C82F82E301C080E3CA3032
S113013098F0D0E3CA50DF5FCA30E0F7803311F49F
S113014008C0D0E3D5DF8D2FD3DF80E38C0FD0DF61
S113015006C0D033C1F7F9CF803399F7F6CFDF91DA
S1130160CF91089580E480937C0087E880937A009F
S11301700895ECE7F0E09081987F8770892B808365
S1130180EAE7F0E0808180648083808186FDFDCF92
S11301908091780090917900089585E0EADFBC01B0
S11301A080E090E093C1089580E0E3DFBC0180E04B
S11301B090E08CD12FE832EC45E950E415D220E0F0
S11301C030E040E85AE310D220E030E040E05FE362
S11301D0ECD020E030E048EC52E406C21F920F92CB
S11301E00FB60F9211248F939F9380911D0181303C
S11301F099F480910001909101010196909301017D
S1130200809300018C35910538F01092060110920C
S11302101D0181E0809332019F918F910F900FBE59
S11302200F901F9018951F920F920FB60F921124E2
S11302302F933F934F935F936F937F938F939F93EA
S1130240AF93BF93EF93FF9380910601813009F040
S11302503BC080E88BB980911D0181110CC081E005
S113026080931D0110928500109284001092010168
S1130270109200012BC010921D0120918400309136
S113028085006091000170910101CB01A0E0B0E014
S1130290DC0199278827BC01CD01620F731F811DE2
S11302A0911D16D120E030E040E05FE39DD129E9C3
S11302B03BEB46E15BE398D1DDD07093340160936E
S11302C033011092060102C080E48BB981E080936F
S11302D08100FF91EF91BF91AF919F918F917F9199
S11302E06F915F914F913F912F910F900FBE0F909F
S11302F01F90189580910601811113C083ED90E33E
S11303000197F1F700C0000028980000289A93E0B4
S11303109A95F1F70000289881E0809306011092E5
S113032032010895E7DF2FE38DE093E02150804010
S11303309040E1F700C000008091330190913401B6
S113034008951092800010928100109285001092FE
S1130350840081E080936F000895E9E6F0E08081F5
S113036084608083E99A0895F8DFEBDF7894089538
S1130370813341F0823351F0803351F415DF7AD068
S1130380862F07C00ADF76D0862F03C0CBDF01C0DB
S113039080E0B6CE089514B88FEF8AB981DE89DE85
S11303A0E1DEE2DF9DDEE4DFFDCF5058BB27AA2764
S11303B00ED0E0C0D1D030F0D6D020F031F49F3F41
S11303C011F41EF4C6C00EF4E095E7FBBCC0E92F9F
S11303D0E2D080F3BA17620773078407950718F011
S11303E071F49EF5FAC00EF4E0950B2EBA2FA02DF1
S11303F00B01B90190010C01CA01A0011124FF27CE
S1130400591B99F0593F50F4503E68F11A16F040C8
S1130410A22F232F342F4427585FF3CF46953795C7
S11304202795A795F0405395C9F77EF41F16BA0B8C
S1130430620B730B840BBAF09150A1F0FF0FBB1F3A
S1130440661F771F881FC2F70EC0BA0F621F731F83
S1130450841F48F4879577956795B795F7959E3FE0
S113046008F0B3CF9395880F08F09927EE0F97956E
S11304708795089598D088F09F5790F0B92F9927C1
S1130480B751A0F0D1F0660F771F881F991F1AF09B
S1130490BA95C9F712C0B13081F09FD0B1E0089588
S11304A09CC0672F782F8827B85F39F0B93FCCF309
S11304B0869577956795B395D9F73EF49095809591
S11304C0709561957F4F8F4F9F4F0895E89409C0B1
S11304D097FB3EF490958095709561957F4F8F4F73
S11304E09F4F9923A9F0F92F96E9BB279395F69589
S11304F0879577956795B795F111F8CFFAF4BB0F07
S113050011F460FF1BC06F5F7F4F8F4F9F4F16C06A
S1130510882311F096E911C0772321F09EE8872FF4
S1130520762F05C0662371F096E8862F70E060E0B0
S11305302AF09A95660F771F881FDAF7880F969529
S1130540879597F9089597F99F6780E870E060E0D0
S113055008959FEF80EC089500240A941616170658
S113056018060906089500240A94121613061406A0
S113057005060895092E0394000C11F4882352F003
S1130580BB0F40F4BF2B11F460FF04C06F5F7F4FBB
S11305908F4F9F4F089557FD9058440F551F59F0A2
S11305A05F3F71F04795880F97FB991F61F09F3F5C
S11305B079F087950895121613061406551FF2CF85
S11305C04695F1DF08C0161617061806991FF1CFD5
S11305D086957105610508940895E894BB276627FC
S11305E07727CB0197F908950BD0C4CFB5DF28F056
S11305F0BADF18F0952309F0A6CFABCF1124EECFC4
S1130600CADFA0F3959FD1F3950F50E0551F629F69
S1130610F001729FBB27F00DB11D639FAA27F00D57
S1130620B11DAA1F649F6627B00DA11D661F829F7E
S11306302227B00DA11D621F739FB00DA11D621F63
S1130640839FA00D611D221F749F3327A00D611D80
S1130650231F849F600D211D822F762F6A2F112462
S11306609F5750408AF0E1F088234AF0EE0FFF1FB5
S1130670BB1F661F771F881F91505040A9F79E3FEC
S1130680510570F060CFAACF5F3FECF3983EDCF3E6
S1130690869577956795B795F795E7959F5FC1F729
S11306A0FE2B880F911D9695879597F90895F894D8
S10506B0FFCF76
S9030000FC
