S020000050726F6A6563742D656D6265646465642D73797374656D732E7372656391
S113000033C000004CC00000E4C1000048C0000040
S113001046C0000044C0000042C0000040C00000D0
S11300203EC000003CC000003AC0000038C00000E0
S113003036C00000A9C1000032C0000030C000007A
S11300402EC000002CC000002AC0000028C0000000
S113005026C0000024C0000022C0000020C0000010
S11300601EC000001CC0000011241FBECFEFD8E04A
S1130070DEBFCDBF11E0A0E0B1E0E6E4FAE002C0EB
S113008005900D92A230B107D9F721E0A2E0B1E0CA
S113009001C01D92AE36B207E1F7BDD2D2C4B0CFD3
S11300A095B184B180628F7784B9892F806A85B9CC
S11300B008951092C50083E38093C4001092C00099
S11300C088E18093C10086E08093C2002FE38DE035
S11300D093E0215080409040E1F700C00000089573
S11300E0E0ECF0E080818823ECF78091C60090E09A
S11300F00895E0ECF0E0908195FFFDCF8093C60079
S1130100089580E480937C0087E880937A000895C2
S1130110ECE7F0E09081987F8770892B8083EAE791
S1130120F0E0808180648083808186FDFDCF8091B2
S1130130780090917900089585E0EADFBC0180E0C1
S113014090E08EC308958F929F92AF92BF92EF92E8
S1130150FF920F931F93CF93DF93E0901001F090E1
S1130160110187010F5F1F4FE1F0C1E4D1E0000FDF
S1130170111F000F111F0F5B1E4F89909990A990BA
S1130180B990072E000C880B990B6CD3A501940130
S11301906AD235D3C017D10781F78FEFE81AF80A6E
S11301A002C0E12CF12C072E000C880B990B5AD3BA
S11301B04B015C01B701FF0C880B990B53D39B01D6
S11301C0AC01C501B401B3D2609312017093130161
S11301D08093140190931501DF91CF911F910F919A
S11301E0FF90EF90BF90AF909F908F900895809173
S11301F01001909111010C9720F0109211011092AE
S113020010019ADFE0911001F0911101EE0FFF1F30
S1130210EE0FFF1FEF5BFE4F608371838283938336
S113022092DF809110019091110101969093110138
S1130230809310012FE38DE093E0215080409040A3
S1130240E1F700C00000089580E062DFBC0180E0B7
S113025090E006D32FE832EC45E950E48FD320E058
S113026030E040E85AE38AD320E030E040E05FE346
S1130270F9D120E030E048EC52E480D320E030E0D3
S113028040E05FE37BC38F929F92AF92BF92EF9265
S1130290FF920F931F93CF93DF93E0900A01F090A6
S11302A00B0187010F5F1F4FE1F0C8E1D1E0000FA0
S11302B0111F000F111F085E1E4F89909990A9907D
S11302C0B990072E000C880B990BCCD2A501940190
S11302D0CAD195D2C017D10781F78FEFE81AF80A6F
S11302E002C0E12CF12C072E000C880B990BBAD21A
S11302F04B015C01B701FF0C880B990BB3D29B0136
S1130300AC01C501B40113D260930C0170930D01CB
S113031080930E0190930F01DF91CF911F910F9164
S1130320FF90EF90BF90AF909F908F900895809131
S11303300A0190910B010C9720F010920B0110927E
S11303400A0182DFE0910A01F0910B01EE0FFF1F19
S1130350EE0FFF1FE85EFE4F6083718382839383F9
S113036092DF80910A0190910B01019690930B0109
S113037080930A012FE38DE093E021508040904068
S1130380E1F700C0000008951F920F920FB60F927C
S113039011248F939F9380914001813099F480912F
S11303A00801909109010196909309018093080135
S11303B08C35910538F0109217011092400181E0BC
S11303C0809369019F918F910F900FBE0F901F90A2
S11303D018951F920F920FB60F9211242F933F93EB
S11303E04F935F936F937F938F939F93AF93BF9339
S11303F0EF93FF93809117018130C1F58091400103
S113040081110CC081E0809340011092850010920C
S11304108400109209011092080128C01092400132
S11304202091840030918500609108017091090148
S1130430CB01A0E0B0E0DC0199278827BC01CD0105
S1130440620F731F811D911D0DD220E030E040E04A
S11304505FE394D229E93BEB46E15BE38FD2D4D14D
S113046070936B0160936A011092170181E080938D
S11304708100FF91EF91BF91AF919F918F917F91F7
S11304806F915F914F913F912F910F900FBE0F90FD
S11304901F90189580911701811113C083ED90E38B
S11304A00197F1F700C0000058980000589A93E0B3
S11304B09A95F1F70000589881E080931701109203
S11304C06901089587EF8AB98FEF84B9089510926E
S11304D0800010928100109285001092840081E0C7
S11304E080936F000895E9E6F0E080818460808362
S11304F0E99A0895E7DFF7DFEADF80E090E0089506
S1130500299A2FE78AE196E0215080409040E1F754
S113051000C0000085B185B92FE78AE196E021503B
S113052080409040E1F700C0000008959C012053F2
S1130530310922303105F8F4209100013091010194
S113054082179307C1F020910401309105012A30EC
S1130550310539F421E030E03093050120930401A2
S113056006C02F5F3F4F3093050120930401909301
S11305700101809300018091040190910501089785
S113058009F4D5DE8091040190910501039709F4E3
S11305902EDE80910401909105010A9771F58091F6
S11305A0020190910301892B91F581E090E0A1DD96
S11305B082E090E09EDD60910C0170910D018091CC
S11305C00E0190910F011BD1CB0193DD81E090E0EE
S11305D090DD83E090E08DDD609112017091130154
S11305E080911401909115010AD1CB0182DD81E043
S11305F090E0909303018093020180910401909113
S11306000501019721F4109203011092020180E088
S113061090E06FCD08951AB88FEF84B941DD49DDBC
S113062070DD68DF789436DF2FE38DE093E02150AE
S113063080409040E1F700C0000052DD77DFC091B8
S11306406A01D0916B0180910601909107018C178A
S11306509D0711F055DF01C015B8D0930701C09371
S11306600601E1CF5058BB27AA270ED04DC13ED179
S113067030F043D120F031F49F3F11F41EF433C124
S11306800EF4E095E7FB29C1E92F4FD180F3BA17A7
S1130690620773078407950718F071F49EF567C124
S11306A00EF4E0950B2EBA2FA02D0B01B901900189
S11306B00C01CA01A0011124FF27591B99F0593FCD
S11306C050F4503E68F11A16F040A22F232F342F15
S11306D04427585FF3CF469537952795A795F04063
S11306E05395C9F77EF41F16BA0B620B730B840B78
S11306F0BAF09150A1F0FF0FBB1F661F771F881F30
S1130700C2F70EC0BA0F621F731F841F48F4879587
S113071077956795B795F7959E3F08F0B3CF939576
S1130720880F08F09927EE0F9795879508950CD0B8
S1130730EBC0E3D040F0DAD030F021F45F3F19F0A1
S1130740CCC0511115C1CFC0F0D098F39923C9F38F
S11307505523B1F3951B550BBB27AA2762177307C3
S1130760840738F09F5F5F4F220F331F441FAA1F77
S1130770A9F333D00E2E3AF0E0E830D09150504037
S1130780E695001CCAF729D0FE2F27D0660F771FE5
S1130790881FBB1F261737074807AB07B0E809F0C7
S11307A0BB0B802DBF01FF2793585F4F2AF09E3F5C
S11307B0510568F092C0DCC05F3FECF3983EDCF377
S11307C0869577956795B795F7959F5FC9F7880FD5
S11307D0911D9695879597F90895E1E0660F771F27
S11307E0881FBB1F621773078407BA0720F0621BB8
S11307F0730B840BBA0BEE1F88F7E095089504D0B1
S11308006894B111B5C0089598D088F09F5790F0BE
S1130810B92F9927B751A0F0D1F0660F771F881F21
S1130820991F1AF0BA95C9F712C0B13081F09FD060
S1130830B1E008959CC0672F782F8827B85F39F0FE
S1130840B93FCCF3869577956795B395D9F73EF480
S113085090958095709561957F4F8F4F9F4F089528
S1130860E89409C097FB3EF4909580957095619546
S11308707F4F8F4F9F4F9923A9F0F92F96E9BB27FC
S11308809395F695879577956795B795F111F8CF78
S1130890FAF4BB0F11F460FF1BC06F5F7F4F8F4FE3
S11308A09F4F16C0882311F096E911C0772321F0D9
S11308B09EE8872F762F05C0662371F096E8862F71
S11308C070E060E02AF09A95660F771F881FDAF7C8
S11308D0880F9695879597F9089597F99F6780E80B
S11308E070E060E008959FEF80EC089500240A947E
S11308F01616170618060906089500240A941216F7
S11309001306140605060895092E0394000C11F429
S1130910882352F0BB0F40F4BF2B11F460FF04C0D6
S11309206F5F7F4F8F4F9F4F089557FD9058440F2F
S1130930551F59F05F3F71F04795880F97FB991F3A
S113094061F09F3F79F087950895121613061406F7
S1130950551FF2CF4695F1DF08C016161706180684
S1130960991FF1CF86957105610508940895E8945F
S1130970BB2766277727CB0197F908950BD0C4CFFF
S1130980B5DF28F0BADF18F0952309F0A6CFABCF76
S11309901124EECFCADFA0F3959FD1F3950F50E059
S11309A0551F629FF001729FBB27F00DB11D639F1D
S11309B0AA27F00DB11DAA1F649F6627B00DA11DC3
S11309C0661F829F2227B00DA11D621F739FB00D69
S11309D0A11D621F839FA00D611D221F749F3327D9
S11309E0A00D611D231F849F600D211D822F762F72
S11309F06A2F11249F5750408AF0E1F088234AF06F
S1130A00EE0FFF1FBB1F661F771F881F91505040BA
S1130A10A9F79E3F510570F060CFAACF5F3FECF37A
S1130A20983EDCF3869577956795B795F795E795A6
S1130A309F5FC1F7FE2B880F911D9695879597F9B7
S1090A400895F894FFCFB5
S1050A46310079
S9030000FC
