S020000050726F6A6563742D656D6265646465642D73797374656D732E7372656391
S113000033C000004CC000004AC0000048C00000DB
S113001046C0000044C0000042C0000040C00000D0
S11300203EC000003CC000003AC0000038C00000E0
S113003036C0000034C0000032C0000030C00000F0
S11300402EC000002CC000002AC0000028C0000000
S113005026C0000024C0000022C0000020C0000010
S11300601EC000001CC0000011241FBECFEFD8E04A
S1130070DEBFCDBF11E0A0E0B1E0E2E1F1E002C0FB
S113008005900D92A030B107D9F721E0A0E0B1E0CE
S113009001C01D92A030B207E1F728D038C0B0CF1C
S11300A095B184B180628F7784B9892F806A85B9CC
S11300B008951092C50083E38093C4001092C00099
S11300C088E18093C10086E08093C2000895E0EC4B
S11300D0F0E0908195FFFDCF8093C600089580E401
S11300E080937C0087E880937A000895D9DFE1DF6C
S11300F02FE38DE093E0215080409040E1F700C071
S11301000000EDDF8FEF8AB985E0E1DFFDCFF894E1
S1050110FFCF1B
S9030000FC
